{
    "abi": [
        {
            "type": "constructor",
            "inputs": [
                {
                    "name": "_strikePrice",
                    "type": "int256",
                    "internalType": "int256"
                },
                {
                    "name": "_owner",
                    "type": "address",
                    "internalType": "address"
                },
                {
                    "name": "_tradingPair",
                    "type": "string",
                    "internalType": "string"
                },
                {
                    "name": "_priceFeedAddress",
                    "type": "address",
                    "internalType": "address"
                },
                {
                    "name": "_maturityTime",
                    "type": "uint256",
                    "internalType": "uint256"
                },
                {
                    "name": "_feePercentage",
                    "type": "uint256",
                    "internalType": "uint256"
                },
                {
                    "name": "_indexBg",
                    "type": "uint256",
                    "internalType": "uint256"
                }
            ],
            "stateMutability": "nonpayable"
        },
        {
            "type": "function",
            "name": "bid",
            "inputs": [
                {
                    "name": "side",
                    "type": "uint8",
                    "internalType": "enum BinaryOptionMarket.Side"
                }
            ],
            "outputs": [],
            "stateMutability": "payable"
        },
        {
            "type": "function",
            "name": "biddingStartTime",
            "inputs": [],
            "outputs": [
                {
                    "name": "",
                    "type": "uint256",
                    "internalType": "uint256"
                }
            ],
            "stateMutability": "view"
        },
        {
            "type": "function",
            "name": "claimReward",
            "inputs": [],
            "outputs": [],
            "stateMutability": "nonpayable"
        },
        {
            "type": "function",
            "name": "currentPhase",
            "inputs": [],
            "outputs": [
                {
                    "name": "",
                    "type": "uint8",
                    "internalType": "enum BinaryOptionMarket.Phase"
                }
            ],
            "stateMutability": "view"
        },
        {
            "type": "function",
            "name": "deployTime",
            "inputs": [],
            "outputs": [
                {
                    "name": "",
                    "type": "uint256",
                    "internalType": "uint256"
                }
            ],
            "stateMutability": "view"
        },
        {
            "type": "function",
            "name": "expireMarket",
            "inputs": [],
            "outputs": [],
            "stateMutability": "nonpayable"
        },
        {
            "type": "function",
            "name": "feePercentage",
            "inputs": [],
            "outputs": [
                {
                    "name": "",
                    "type": "uint256",
                    "internalType": "uint256"
                }
            ],
            "stateMutability": "view"
        },
        {
            "type": "function",
            "name": "fees",
            "inputs": [],
            "outputs": [
                {
                    "name": "poolFee",
                    "type": "uint256",
                    "internalType": "uint256"
                },
                {
                    "name": "creatorFee",
                    "type": "uint256",
                    "internalType": "uint256"
                },
                {
                    "name": "refundFee",
                    "type": "uint256",
                    "internalType": "uint256"
                }
            ],
            "stateMutability": "view"
        },
        {
            "type": "function",
            "name": "getChainlinkDataFeedLatestAnswer",
            "inputs": [],
            "outputs": [
                {
                    "name": "",
                    "type": "int256",
                    "internalType": "int256"
                }
            ],
            "stateMutability": "view"
        },
        {
            "type": "function",
            "name": "getFinalPrice",
            "inputs": [],
            "outputs": [
                {
                    "name": "",
                    "type": "int256",
                    "internalType": "int256"
                }
            ],
            "stateMutability": "view"
        },
        {
            "type": "function",
            "name": "hasClaimed",
            "inputs": [
                {
                    "name": "",
                    "type": "address",
                    "internalType": "address"
                }
            ],
            "outputs": [
                {
                    "name": "",
                    "type": "bool",
                    "internalType": "bool"
                }
            ],
            "stateMutability": "view"
        },
        {
            "type": "function",
            "name": "hasWithdrawn",
            "inputs": [
                {
                    "name": "",
                    "type": "address",
                    "internalType": "address"
                }
            ],
            "outputs": [
                {
                    "name": "",
                    "type": "bool",
                    "internalType": "bool"
                }
            ],
            "stateMutability": "view"
        },
        {
            "type": "function",
            "name": "indexBg",
            "inputs": [],
            "outputs": [
                {
                    "name": "",
                    "type": "uint256",
                    "internalType": "uint256"
                }
            ],
            "stateMutability": "view"
        },
        {
            "type": "function",
            "name": "longBids",
            "inputs": [
                {
                    "name": "",
                    "type": "address",
                    "internalType": "address"
                }
            ],
            "outputs": [
                {
                    "name": "",
                    "type": "uint256",
                    "internalType": "uint256"
                }
            ],
            "stateMutability": "view"
        },
        {
            "type": "function",
            "name": "maturityTime",
            "inputs": [],
            "outputs": [
                {
                    "name": "",
                    "type": "uint256",
                    "internalType": "uint256"
                }
            ],
            "stateMutability": "view"
        },
        {
            "type": "function",
            "name": "oracleDetails",
            "inputs": [],
            "outputs": [
                {
                    "name": "strikePrice",
                    "type": "int256",
                    "internalType": "int256"
                },
                {
                    "name": "finalPrice",
                    "type": "int256",
                    "internalType": "int256"
                }
            ],
            "stateMutability": "view"
        },
        {
            "type": "function",
            "name": "owner",
            "inputs": [],
            "outputs": [
                {
                    "name": "",
                    "type": "address",
                    "internalType": "address"
                }
            ],
            "stateMutability": "view"
        },
        {
            "type": "function",
            "name": "positions",
            "inputs": [],
            "outputs": [
                {
                    "name": "long",
                    "type": "uint256",
                    "internalType": "uint256"
                },
                {
                    "name": "short",
                    "type": "uint256",
                    "internalType": "uint256"
                }
            ],
            "stateMutability": "view"
        },
        {
            "type": "function",
            "name": "priceDecimals",
            "inputs": [],
            "outputs": [
                {
                    "name": "",
                    "type": "uint8",
                    "internalType": "uint8"
                }
            ],
            "stateMutability": "view"
        },
        {
            "type": "function",
            "name": "renounceOwnership",
            "inputs": [],
            "outputs": [],
            "stateMutability": "nonpayable"
        },
        {
            "type": "function",
            "name": "resolveMarket",
            "inputs": [],
            "outputs": [],
            "stateMutability": "nonpayable"
        },
        {
            "type": "function",
            "name": "resolveTime",
            "inputs": [],
            "outputs": [
                {
                    "name": "",
                    "type": "uint256",
                    "internalType": "uint256"
                }
            ],
            "stateMutability": "view"
        },
        {
            "type": "function",
            "name": "resolved",
            "inputs": [],
            "outputs": [
                {
                    "name": "",
                    "type": "bool",
                    "internalType": "bool"
                }
            ],
            "stateMutability": "view"
        },
        {
            "type": "function",
            "name": "shortBids",
            "inputs": [
                {
                    "name": "",
                    "type": "address",
                    "internalType": "address"
                }
            ],
            "outputs": [
                {
                    "name": "",
                    "type": "uint256",
                    "internalType": "uint256"
                }
            ],
            "stateMutability": "view"
        },
        {
            "type": "function",
            "name": "startBidding",
            "inputs": [],
            "outputs": [],
            "stateMutability": "nonpayable"
        },
        {
            "type": "function",
            "name": "strikePrice",
            "inputs": [],
            "outputs": [
                {
                    "name": "",
                    "type": "uint256",
                    "internalType": "uint256"
                }
            ],
            "stateMutability": "view"
        },
        {
            "type": "function",
            "name": "totalDeposited",
            "inputs": [],
            "outputs": [
                {
                    "name": "",
                    "type": "uint256",
                    "internalType": "uint256"
                }
            ],
            "stateMutability": "view"
        },
        {
            "type": "function",
            "name": "tradingPair",
            "inputs": [],
            "outputs": [
                {
                    "name": "",
                    "type": "string",
                    "internalType": "string"
                }
            ],
            "stateMutability": "view"
        },
        {
            "type": "function",
            "name": "transferOwnership",
            "inputs": [
                {
                    "name": "newOwner",
                    "type": "address",
                    "internalType": "address"
                }
            ],
            "outputs": [],
            "stateMutability": "nonpayable"
        },
        {
            "type": "function",
            "name": "withdraw",
            "inputs": [],
            "outputs": [],
            "stateMutability": "nonpayable"
        },
        {
            "type": "event",
            "name": "Bid",
            "inputs": [
                {
                    "name": "side",
                    "type": "uint8",
                    "indexed": false,
                    "internalType": "enum BinaryOptionMarket.Side"
                },
                {
                    "name": "account",
                    "type": "address",
                    "indexed": true,
                    "internalType": "address"
                },
                {
                    "name": "value",
                    "type": "uint256",
                    "indexed": false,
                    "internalType": "uint256"
                }
            ],
            "anonymous": false
        },
        {
            "type": "event",
            "name": "MarketOutcome",
            "inputs": [
                {
                    "name": "winningSide",
                    "type": "uint8",
                    "indexed": false,
                    "internalType": "enum BinaryOptionMarket.Side"
                },
                {
                    "name": "user",
                    "type": "address",
                    "indexed": true,
                    "internalType": "address"
                },
                {
                    "name": "isWinner",
                    "type": "bool",
                    "indexed": false,
                    "internalType": "bool"
                }
            ],
            "anonymous": false
        },
        {
            "type": "event",
            "name": "MarketResolved",
            "inputs": [
                {
                    "name": "finalPrice",
                    "type": "int256",
                    "indexed": false,
                    "internalType": "int256"
                },
                {
                    "name": "timeStamp",
                    "type": "uint256",
                    "indexed": false,
                    "internalType": "uint256"
                }
            ],
            "anonymous": false
        },
        {
            "type": "event",
            "name": "OwnershipTransferred",
            "inputs": [
                {
                    "name": "previousOwner",
                    "type": "address",
                    "indexed": true,
                    "internalType": "address"
                },
                {
                    "name": "newOwner",
                    "type": "address",
                    "indexed": true,
                    "internalType": "address"
                }
            ],
            "anonymous": false
        },
        {
            "type": "event",
            "name": "PositionUpdated",
            "inputs": [
                {
                    "name": "timestamp",
                    "type": "uint256",
                    "indexed": false,
                    "internalType": "uint256"
                },
                {
                    "name": "longAmount",
                    "type": "uint256",
                    "indexed": false,
                    "internalType": "uint256"
                },
                {
                    "name": "shortAmount",
                    "type": "uint256",
                    "indexed": false,
                    "internalType": "uint256"
                },
                {
                    "name": "totalDeposited",
                    "type": "uint256",
                    "indexed": false,
                    "internalType": "uint256"
                }
            ],
            "anonymous": false
        },
        {
            "type": "event",
            "name": "RewardClaimed",
            "inputs": [
                {
                    "name": "account",
                    "type": "address",
                    "indexed": true,
                    "internalType": "address"
                },
                {
                    "name": "value",
                    "type": "uint256",
                    "indexed": false,
                    "internalType": "uint256"
                }
            ],
            "anonymous": false
        },
        {
            "type": "event",
            "name": "Withdrawal",
            "inputs": [
                {
                    "name": "user",
                    "type": "address",
                    "indexed": true,
                    "internalType": "address"
                },
                {
                    "name": "amount",
                    "type": "uint256",
                    "indexed": false,
                    "internalType": "uint256"
                }
            ],
            "anonymous": false
        },
        {
            "type": "error",
            "name": "OwnableInvalidOwner",
            "inputs": [
                {
                    "name": "owner",
                    "type": "address",
                    "internalType": "address"
                }
            ]
        },
        {
            "type": "error",
            "name": "OwnableUnauthorizedAccount",
            "inputs": [
                {
                    "name": "account",
                    "type": "address",
                    "internalType": "address"
                }
            ]
        }
    ],
    "bytecode": {
        "object": "0x608060405234801561000f575f5ffd5b5060405161339c38038061339c83398181016040528101906100319190610740565b855f73ffffffffffffffffffffffffffffffffffffffff168173ffffffffffffffffffffffffffffffffffffffff16036100a2575f6040517f1e4fbdf70000000000000000000000000000000000000000000000000000000081526004016100999190610808565b60405180910390fd5b6100b18161031b60201b60201c565b504283116100f4576040517f08c379a00000000000000000000000000000000000000000000000000000000081526004016100eb906108a1565b60405180910390fd5b60018210158015610106575060c88211155b610145576040517f08c379a000000000000000000000000000000000000000000000000000000000815260040161013c90610909565b60405180910390fd5b600181101580156101575750600a8111155b610196576040517f08c379a000000000000000000000000000000000000000000000000000000000815260040161018d90610997565b60405180910390fd5b60405180604001604052808881526020018881525060015f820151815f01556020820151816001015590505084601190816101d19190610bbc565b50826007819055504260058190555081601081905550806012819055508360035f6101000a81548173ffffffffffffffffffffffffffffffffffffffff021916908373ffffffffffffffffffffffffffffffffffffffff16021790555060035f9054906101000a900473ffffffffffffffffffffffffffffffffffffffff1673ffffffffffffffffffffffffffffffffffffffff1663313ce5676040518163ffffffff1660e01b8152600401602060405180830381865afa158015610298573d5f5f3e3d5ffd5b505050506040513d601f19601f820116820180604052508101906102bc9190610cc1565b600360146101000a81548160ff021916908360ff1602179055505f600f60016101000a81548160ff021916908360038111156102fb576102fa610cec565b5b021790555061030f336103dc60201b60201c565b50505050505050610d19565b5f5f5f9054906101000a900473ffffffffffffffffffffffffffffffffffffffff169050815f5f6101000a81548173ffffffffffffffffffffffffffffffffffffffff021916908373ffffffffffffffffffffffffffffffffffffffff1602179055508173ffffffffffffffffffffffffffffffffffffffff168173ffffffffffffffffffffffffffffffffffffffff167f8be0079c531659141344cd1fd0a4f28419497f9722a3daafe3b4186f6b6457e060405160405180910390a35050565b6103ea61046c60201b60201c565b5f73ffffffffffffffffffffffffffffffffffffffff168173ffffffffffffffffffffffffffffffffffffffff160361045a575f6040517f1e4fbdf70000000000000000000000000000000000000000000000000000000081526004016104519190610808565b60405180910390fd5b6104698161031b60201b60201c565b50565b61047a61050560201b60201c565b73ffffffffffffffffffffffffffffffffffffffff1661049e61050c60201b60201c565b73ffffffffffffffffffffffffffffffffffffffff1614610503576104c761050560201b60201c565b6040517f118cdaa70000000000000000000000000000000000000000000000000000000081526004016104fa9190610808565b60405180910390fd5b565b5f33905090565b5f5f5f9054906101000a900473ffffffffffffffffffffffffffffffffffffffff16905090565b5f604051905090565b5f5ffd5b5f5ffd5b5f819050919050565b61055681610544565b8114610560575f5ffd5b50565b5f815190506105718161054d565b92915050565b5f73ffffffffffffffffffffffffffffffffffffffff82169050919050565b5f6105a082610577565b9050919050565b6105b081610596565b81146105ba575f5ffd5b50565b5f815190506105cb816105a7565b92915050565b5f5ffd5b5f5ffd5b5f601f19601f8301169050919050565b7f4e487b71000000000000000000000000000000000000000000000000000000005f52604160045260245ffd5b61061f826105d9565b810181811067ffffffffffffffff8211171561063e5761063d6105e9565b5b80604052505050565b5f610650610533565b905061065c8282610616565b919050565b5f67ffffffffffffffff82111561067b5761067a6105e9565b5b610684826105d9565b9050602081019050919050565b8281835e5f83830152505050565b5f6106b16106ac84610661565b610647565b9050828152602081018484840111156106cd576106cc6105d5565b5b6106d8848285610691565b509392505050565b5f82601f8301126106f4576106f36105d1565b5b815161070484826020860161069f565b91505092915050565b5f819050919050565b61071f8161070d565b8114610729575f5ffd5b50565b5f8151905061073a81610716565b92915050565b5f5f5f5f5f5f5f60e0888a03121561075b5761075a61053c565b5b5f6107688a828b01610563565b97505060206107798a828b016105bd565b965050604088015167ffffffffffffffff81111561079a57610799610540565b5b6107a68a828b016106e0565b95505060606107b78a828b016105bd565b94505060806107c88a828b0161072c565b93505060a06107d98a828b0161072c565b92505060c06107ea8a828b0161072c565b91505092959891949750929550565b61080281610596565b82525050565b5f60208201905061081b5f8301846107f9565b92915050565b5f82825260208201905092915050565b7f4d617475726974792074696d65206d75737420626520696e20746865206675745f8201527f7572650000000000000000000000000000000000000000000000000000000000602082015250565b5f61088b602383610821565b915061089682610831565b604082019050919050565b5f6020820190508181035f8301526108b88161087f565b9050919050565b7f466565206d757374206265206265747765656e20302e312520616e64203230255f82015250565b5f6108f3602083610821565b91506108fe826108bf565b602082019050919050565b5f6020820190508181035f830152610920816108e7565b9050919050565b7f496e646578206261636b67726f756e64206d757374206265206265747765656e5f8201527f203120616e642031300000000000000000000000000000000000000000000000602082015250565b5f610981602983610821565b915061098c82610927565b604082019050919050565b5f6020820190508181035f8301526109ae81610975565b9050919050565b5f81519050919050565b7f4e487b71000000000000000000000000000000000000000000000000000000005f52602260045260245ffd5b5f6002820490506001821680610a0357607f821691505b602082108103610a1657610a156109bf565b5b50919050565b5f819050815f5260205f209050919050565b5f6020601f8301049050919050565b5f82821b905092915050565b5f60088302610a787fffffffffffffffffffffffffffffffffffffffffffffffffffffffffffffffff82610a3d565b610a828683610a3d565b95508019841693508086168417925050509392505050565b5f819050919050565b5f610abd610ab8610ab38461070d565b610a9a565b61070d565b9050919050565b5f819050919050565b610ad683610aa3565b610aea610ae282610ac4565b848454610a49565b825550505050565b5f5f905090565b610b01610af2565b610b0c818484610acd565b505050565b5b81811015610b2f57610b245f82610af9565b600181019050610b12565b5050565b601f821115610b7457610b4581610a1c565b610b4e84610a2e565b81016020851015610b5d578190505b610b71610b6985610a2e565b830182610b11565b50505b505050565b5f82821c905092915050565b5f610b945f1984600802610b79565b1980831691505092915050565b5f610bac8383610b85565b9150826002028217905092915050565b610bc5826109b5565b67ffffffffffffffff811115610bde57610bdd6105e9565b5b610be882546109ec565b610bf3828285610b33565b5f60209050601f831160018114610c24575f8415610c12578287015190505b610c1c8582610ba1565b865550610c83565b601f198416610c3286610a1c565b5f5b82811015610c5957848901518255600182019150602085019450602081019050610c34565b86831015610c765784890151610c72601f891682610b85565b8355505b6001600288020188555050505b505050505050565b5f60ff82169050919050565b610ca081610c8b565b8114610caa575f5ffd5b50565b5f81519050610cbb81610c97565b92915050565b5f60208284031215610cd657610cd561053c565b5b5f610ce384828501610cad565b91505092915050565b7f4e487b71000000000000000000000000000000000000000000000000000000005f52602160045260245ffd5b61267680610d265f395ff3fe6080604052600436106101cc575f3560e01c80637d7b39e4116100f6578063b88a802f11610094578063d42f6e3911610063578063d42f6e39146105da578063f2fde38b14610604578063f86e83e51461062c578063ff50abdc14610656576101cc565b8063b88a802f14610545578063ba5b79821461055b578063bea4dfb514610586578063c52987cf146105b0576101cc565b80639af1d35a116100d05780639af1d35a146104af5780639ce05df7146104db5780639e891f3e14610505578063a001ecdd1461051b576101cc565b80637d7b39e4146104445780638da5cb5b1461045a57806398508ecd14610484576101cc565b80633f6fa6551161016e5780635e2c19db1161013d5780635e2c19db1461038c578063715018a6146103c857806373b2e80e146103de5780637a40624b1461041a576101cc565b80633f6fa655146102d25780634e8bfdaa146102fc57806351b72dc514610326578063553fc57414610362576101cc565b80631955e146116101aa5780631955e1461461024e5780632b9b55b31461028a57806333500e26146102a05780633ccfd60b146102bc576101cc565b806305300b28146101d0578063055ad42e146101fa57806305ed76c414610224575b5f5ffd5b3480156101db575f5ffd5b506101e4610680565b6040516101f19190611869565b60405180910390f35b348015610205575f5ffd5b5061020e610693565b60405161021b91906118f5565b60405180910390f35b34801561022f575f5ffd5b506102386106a6565b6040516102459190611926565b60405180910390f35b348015610259575f5ffd5b50610274600480360381019061026f919061199d565b6106ac565b6040516102819190611926565b60405180910390f35b348015610295575f5ffd5b5061029e6106c1565b005b6102ba60048036038101906102b591906119eb565b610853565b005b3480156102c7575f5ffd5b506102d0610aca565b005b3480156102dd575f5ffd5b506102e6610ca8565b6040516102f39190611a30565b60405180910390f35b348015610307575f5ffd5b50610310610cba565b60405161031d9190611926565b60405180910390f35b348015610331575f5ffd5b5061034c6004803603810190610347919061199d565b610cc0565b6040516103599190611926565b60405180910390f35b34801561036d575f5ffd5b50610376610cd5565b6040516103839190611926565b60405180910390f35b348015610397575f5ffd5b506103b260048036038101906103ad919061199d565b610cdb565b6040516103bf9190611a30565b60405180910390f35b3480156103d3575f5ffd5b506103dc610cf8565b005b3480156103e9575f5ffd5b5061040460048036038101906103ff919061199d565b610d0b565b6040516104119190611a30565b60405180910390f35b348015610425575f5ffd5b5061042e610d28565b60405161043b9190611926565b60405180910390f35b34801561044f575f5ffd5b50610458610d2e565b005b348015610465575f5ffd5b5061046e610ddf565b60405161047b9190611a58565b60405180910390f35b34801561048f575f5ffd5b50610498610e06565b6040516104a6929190611a89565b60405180910390f35b3480156104ba575f5ffd5b506104c3610e17565b6040516104d293929190611ab0565b60405180910390f35b3480156104e6575f5ffd5b506104ef610e2e565b6040516104fc9190611ae5565b60405180910390f35b348015610510575f5ffd5b50610519610e39565b005b348015610526575f5ffd5b5061052f610f39565b60405161053c9190611926565b60405180910390f35b348015610550575f5ffd5b50610559610f3f565b005b348015610566575f5ffd5b5061056f611358565b60405161057d929190611afe565b60405180910390f35b348015610591575f5ffd5b5061059a611369565b6040516105a79190611ae5565b60405180910390f35b3480156105bb575f5ffd5b506105c4611406565b6040516105d19190611926565b60405180910390f35b3480156105e5575f5ffd5b506105ee61140c565b6040516105fb9190611b95565b60405180910390f35b34801561060f575f5ffd5b5061062a6004803603810190610625919061199d565b611498565b005b348015610637575f5ffd5b5061064061151c565b60405161064d9190611926565b60405180910390f35b348015610661575f5ffd5b5061066a611522565b6040516106779190611926565b60405180910390f35b600360149054906101000a900460ff1681565b600f60019054906101000a900460ff1681565b60085481565b6013602052805f5260405f205f915090505481565b600160038111156106d5576106d4611882565b5b600f60019054906101000a900460ff1660038111156106f7576106f6611882565b5b14610737576040517f08c379a000000000000000000000000000000000000000000000000000000000815260040161072e90611bff565b60405180910390fd5b60075442101561077c576040517f08c379a000000000000000000000000000000000000000000000000000000000815260040161077390611c67565b60405180910390fd5b6002600f60016101000a81548160ff021916908360038111156107a2576107a1611882565b5b0217905550426008819055505f5f60035f9054906101000a900473ffffffffffffffffffffffffffffffffffffffff1673ffffffffffffffffffffffffffffffffffffffff1663feaf968c6040518163ffffffff1660e01b815260040160a060405180830381865afa15801561081a573d5f5f3e3d5ffd5b505050506040513d601f19601f8201168201806040525081019061083e9190611d18565b5093505092505061084f8282611528565b5050565b6001600381111561086757610866611882565b5b600f60019054906101000a900460ff16600381111561088957610888611882565b5b146108c9576040517f08c379a00000000000000000000000000000000000000000000000000000000081526004016108c090611dd9565b60405180910390fd5b5f341161090b576040517f08c379a000000000000000000000000000000000000000000000000000000000815260040161090290611e41565b60405180910390fd5b5f600181111561091e5761091d611882565b5b81600181111561093157610930611882565b5b036109a8573460095f015f8282546109499190611e8c565b925050819055503460135f3373ffffffffffffffffffffffffffffffffffffffff1673ffffffffffffffffffffffffffffffffffffffff1681526020019081526020015f205f82825461099c9190611e8c565b92505081905550610a17565b3460096001015f8282546109bc9190611e8c565b925050819055503460145f3373ffffffffffffffffffffffffffffffffffffffff1673ffffffffffffffffffffffffffffffffffffffff1681526020019081526020015f205f828254610a0f9190611e8c565b925050819055505b34600e5f828254610a289190611e8c565b925050819055507f5fd7e45cc570ececa5a25e81af5f4acc6a2456c0fb1eee17751ec71677d32f3c4260095f0154600960010154600e54604051610a6f9493929190611ebf565b60405180910390a13373ffffffffffffffffffffffffffffffffffffffff167f70bd4a33bf447720d717d08f3affb5aecfe4d2ebb8e3dd94539f5313e24476438234604051610abf929190611f48565b60405180910390a250565b610ad261162f565b5f6103e8601054600e54610ae69190611f6f565b610af09190611fdd565b90505f8111610b34576040517f08c379a0000000000000000000000000000000000000000000000000000000008152600401610b2b90612057565b60405180910390fd5b60165f3373ffffffffffffffffffffffffffffffffffffffff1673ffffffffffffffffffffffffffffffffffffffff1681526020019081526020015f205f9054906101000a900460ff1615610bbe576040517f08c379a0000000000000000000000000000000000000000000000000000000008152600401610bb5906120bf565b60405180910390fd5b600160165f3373ffffffffffffffffffffffffffffffffffffffff1673ffffffffffffffffffffffffffffffffffffffff1681526020019081526020015f205f6101000a81548160ff0219169083151502179055503373ffffffffffffffffffffffffffffffffffffffff166108fc8290811502906040515f60405180830381858888f19350505050158015610c56573d5f5f3e3d5ffd5b503373ffffffffffffffffffffffffffffffffffffffff167f7fcf532c15f0a6db0bd6d0e038bea71d30d808c7d98cb3bf7268a95bf5081b6582604051610c9d9190611926565b60405180910390a250565b600f5f9054906101000a900460ff1681565b60075481565b6014602052805f5260405f205f915090505481565b60065481565b6016602052805f5260405f205f915054906101000a900460ff1681565b610d0061162f565b610d095f6116b6565b565b6015602052805f5260405f205f915054906101000a900460ff1681565b60055481565b610d3661162f565b5f6003811115610d4957610d48611882565b5b600f60019054906101000a900460ff166003811115610d6b57610d6a611882565b5b14610dab576040517f08c379a0000000000000000000000000000000000000000000000000000000008152600401610da290612127565b60405180910390fd5b426006819055506001600f60016101000a81548160ff02191690836003811115610dd857610dd7611882565b5b0217905550565b5f5f5f9054906101000a900473ffffffffffffffffffffffffffffffffffffffff16905090565b6001805f0154908060010154905082565b600b805f0154908060010154908060020154905083565b5f6001800154905090565b610e4161162f565b60026003811115610e5557610e54611882565b5b600f60019054906101000a900460ff166003811115610e7757610e76611882565b5b14610eb7576040517f08c379a0000000000000000000000000000000000000000000000000000000008152600401610eae9061218f565b60405180910390fd5b60011515600f5f9054906101000a900460ff16151514610f0c576040517f08c379a0000000000000000000000000000000000000000000000000000000008152600401610f03906121f7565b60405180910390fd5b6003600f60016101000a81548160ff02191690836003811115610f3257610f31611882565b5b0217905550565b60105481565b600380811115610f5257610f51611882565b5b600f60019054906101000a900460ff166003811115610f7457610f73611882565b5b14610fb4576040517f08c379a0000000000000000000000000000000000000000000000000000000008152600401610fab9061225f565b60405180910390fd5b600f5f9054906101000a900460ff16611002576040517f08c379a0000000000000000000000000000000000000000000000000000000008152600401610ff9906121f7565b60405180910390fd5b60155f3373ffffffffffffffffffffffffffffffffffffffff1673ffffffffffffffffffffffffffffffffffffffff1681526020019081526020015f205f9054906101000a900460ff161561108c576040517f08c379a0000000000000000000000000000000000000000000000000000000008152600401611083906122c7565b60405180910390fd5b5f600180015490505f60015f01548212156110a85760016110aa565b5f5b90505f5f5f5f90505f60018111156110c5576110c4611882565b5b8460018111156110d8576110d7611882565b5b036111365760135f3373ffffffffffffffffffffffffffffffffffffffff1673ffffffffffffffffffffffffffffffffffffffff1681526020019081526020015f2054925060095f015491505f83111561113157600190505b61118c565b60145f3373ffffffffffffffffffffffffffffffffffffffff1673ffffffffffffffffffffffffffffffffffffffff1681526020019081526020015f2054925060096001015491505f83111561118b57600190505b5b3373ffffffffffffffffffffffffffffffffffffffff167fcaf126c1b7df3cc94d90d37f4a60f866c0c7c56f50d45e3136fc1dc71e210eba85836040516111d49291906122e5565b60405180910390a25f831161121e576040517f08c379a000000000000000000000000000000000000000000000000000000000815260040161121590612356565b60405180910390fd5b5f82600e548561122e9190611f6f565b6112389190611fdd565b90505f6103e86010548361124c9190611f6f565b6112569190611fdd565b90505f81836112659190612374565b9050600160155f3373ffffffffffffffffffffffffffffffffffffffff1673ffffffffffffffffffffffffffffffffffffffff1681526020019081526020015f205f6101000a81548160ff0219169083151502179055503373ffffffffffffffffffffffffffffffffffffffff166108fc8290811502906040515f60405180830381858888f193505050501580156112ff573d5f5f3e3d5ffd5b503373ffffffffffffffffffffffffffffffffffffffff167f106f923f993c2149d49b4255ff723acafa1f2d94393f561d3eda32ae348f7241826040516113469190611926565b60405180910390a25050505050505050565b6009805f0154908060010154905082565b5f5f60035f9054906101000a900473ffffffffffffffffffffffffffffffffffffffff1673ffffffffffffffffffffffffffffffffffffffff1663feaf968c6040518163ffffffff1660e01b815260040160a060405180830381865afa1580156113d5573d5f5f3e3d5ffd5b505050506040513d601f19601f820116820180604052508101906113f99190611d18565b5050509150508091505090565b60045481565b60118054611419906123d4565b80601f0160208091040260200160405190810160405280929190818152602001828054611445906123d4565b80156114905780601f1061146757610100808354040283529160200191611490565b820191905f5260205f20905b81548152906001019060200180831161147357829003601f168201915b505050505081565b6114a061162f565b5f73ffffffffffffffffffffffffffffffffffffffff168173ffffffffffffffffffffffffffffffffffffffff1603611510575f6040517f1e4fbdf70000000000000000000000000000000000000000000000000000000081526004016115079190611a58565b60405180910390fd5b611519816116b6565b50565b60125481565b600e5481565b5f8290505f61153682611777565b90506001600f5f6101000a81548160ff0219169083151502179055506002600f60016101000a81548160ff0219169083600381111561157857611577611882565b5b02179055508060018001819055507f9fd8e2fb430a5a31913b0b0ba4cb3a01b11cc041c6a81ac719f9db32aa5f052d82846040516115b7929190612404565b60405180910390a15f60015f01548312156115d35760016115d5565b5f5b90505f73ffffffffffffffffffffffffffffffffffffffff167fcaf126c1b7df3cc94d90d37f4a60f866c0c7c56f50d45e3136fc1dc71e210eba8260016040516116209291906122e5565b60405180910390a25050505050565b611637611847565b73ffffffffffffffffffffffffffffffffffffffff16611655610ddf565b73ffffffffffffffffffffffffffffffffffffffff16146116b457611678611847565b6040517f118cdaa70000000000000000000000000000000000000000000000000000000081526004016116ab9190611a58565b60405180910390fd5b565b5f5f5f9054906101000a900473ffffffffffffffffffffffffffffffffffffffff169050815f5f6101000a81548173ffffffffffffffffffffffffffffffffffffffff021916908373ffffffffffffffffffffffffffffffffffffffff1602179055508173ffffffffffffffffffffffffffffffffffffffff168173ffffffffffffffffffffffffffffffffffffffff167f8be0079c531659141344cd1fd0a4f28419497f9722a3daafe3b4186f6b6457e060405160405180910390a35050565b5f5f8212156117bb576040517f08c379a00000000000000000000000000000000000000000000000000000000081526004016117b290612475565b60405180910390fd5b5f600360149054906101000a900460ff16905060088160ff16036117e25782915050611842565b60088160ff16101561181a578060086117fb9190612493565b600a61180791906125f6565b836118129190611f6f565b915050611842565b6008816118279190612493565b600a61183391906125f6565b8361183e9190611fdd565b9150505b919050565b5f33905090565b5f60ff82169050919050565b6118638161184e565b82525050565b5f60208201905061187c5f83018461185a565b92915050565b7f4e487b71000000000000000000000000000000000000000000000000000000005f52602160045260245ffd5b600481106118c0576118bf611882565b5b50565b5f8190506118d0826118af565b919050565b5f6118df826118c3565b9050919050565b6118ef816118d5565b82525050565b5f6020820190506119085f8301846118e6565b92915050565b5f819050919050565b6119208161190e565b82525050565b5f6020820190506119395f830184611917565b92915050565b5f5ffd5b5f73ffffffffffffffffffffffffffffffffffffffff82169050919050565b5f61196c82611943565b9050919050565b61197c81611962565b8114611986575f5ffd5b50565b5f8135905061199781611973565b92915050565b5f602082840312156119b2576119b161193f565b5b5f6119bf84828501611989565b91505092915050565b600281106119d4575f5ffd5b50565b5f813590506119e5816119c8565b92915050565b5f60208284031215611a00576119ff61193f565b5b5f611a0d848285016119d7565b91505092915050565b5f8115159050919050565b611a2a81611a16565b82525050565b5f602082019050611a435f830184611a21565b92915050565b611a5281611962565b82525050565b5f602082019050611a6b5f830184611a49565b92915050565b5f819050919050565b611a8381611a71565b82525050565b5f604082019050611a9c5f830185611a7a565b611aa96020830184611a7a565b9392505050565b5f606082019050611ac35f830186611917565b611ad06020830185611917565b611add6040830184611917565b949350505050565b5f602082019050611af85f830184611a7a565b92915050565b5f604082019050611b115f830185611917565b611b1e6020830184611917565b9392505050565b5f81519050919050565b5f82825260208201905092915050565b8281835e5f83830152505050565b5f601f19601f8301169050919050565b5f611b6782611b25565b611b718185611b2f565b9350611b81818560208601611b3f565b611b8a81611b4d565b840191505092915050565b5f6020820190508181035f830152611bad8184611b5d565b905092915050565b7f4d61726b6574206e6f7420696e2062696464696e6720706861736500000000005f82015250565b5f611be9601b83611b2f565b9150611bf482611bb5565b602082019050919050565b5f6020820190508181035f830152611c1681611bdd565b9050919050565b7f546f6f206561726c7920746f207265736f6c76650000000000000000000000005f82015250565b5f611c51601483611b2f565b9150611c5c82611c1d565b602082019050919050565b5f6020820190508181035f830152611c7e81611c45565b9050919050565b5f69ffffffffffffffffffff82169050919050565b611ca381611c85565b8114611cad575f5ffd5b50565b5f81519050611cbe81611c9a565b92915050565b611ccd81611a71565b8114611cd7575f5ffd5b50565b5f81519050611ce881611cc4565b92915050565b611cf78161190e565b8114611d01575f5ffd5b50565b5f81519050611d1281611cee565b92915050565b5f5f5f5f5f60a08688031215611d3157611d3061193f565b5b5f611d3e88828901611cb0565b9550506020611d4f88828901611cda565b9450506040611d6088828901611d04565b9350506060611d7188828901611d04565b9250506080611d8288828901611cb0565b9150509295509295909350565b7f4e6f7420696e2062696464696e672070686173650000000000000000000000005f82015250565b5f611dc3601483611b2f565b9150611dce82611d8f565b602082019050919050565b5f6020820190508181035f830152611df081611db7565b9050919050565b7f56616c7565206d7573742062652067726561746572207468616e207a65726f005f82015250565b5f611e2b601f83611b2f565b9150611e3682611df7565b602082019050919050565b5f6020820190508181035f830152611e5881611e1f565b9050919050565b7f4e487b71000000000000000000000000000000000000000000000000000000005f52601160045260245ffd5b5f611e968261190e565b9150611ea18361190e565b9250828201905080821115611eb957611eb8611e5f565b5b92915050565b5f608082019050611ed25f830187611917565b611edf6020830186611917565b611eec6040830185611917565b611ef96060830184611917565b95945050505050565b60028110611f1357611f12611882565b5b50565b5f819050611f2382611f02565b919050565b5f611f3282611f16565b9050919050565b611f4281611f28565b82525050565b5f604082019050611f5b5f830185611f39565b611f686020830184611917565b9392505050565b5f611f798261190e565b9150611f848361190e565b9250828202611f928161190e565b91508282048414831517611fa957611fa8611e5f565b5b5092915050565b7f4e487b71000000000000000000000000000000000000000000000000000000005f52601260045260245ffd5b5f611fe78261190e565b9150611ff28361190e565b92508261200257612001611fb0565b5b828204905092915050565b7f4e6f2066656520746f2077697468647261772e000000000000000000000000005f82015250565b5f612041601383611b2f565b915061204c8261200d565b602082019050919050565b5f6020820190508181035f83015261206e81612035565b9050919050565b7f4f776e65722068617320616c72656164792077697468647261776e2e000000005f82015250565b5f6120a9601c83611b2f565b91506120b482612075565b602082019050919050565b5f6020820190508181035f8301526120d68161209d565b9050919050565b7f4d61726b6574206e6f7420696e2074726164696e6720706861736500000000005f82015250565b5f612111601b83611b2f565b915061211c826120dd565b602082019050919050565b5f6020820190508181035f83015261213e81612105565b9050919050565b7f4d61726b6574206e6f7420696e206d61747572697479207068617365000000005f82015250565b5f612179601c83611b2f565b915061218482612145565b602082019050919050565b5f6020820190508181035f8301526121a68161216d565b9050919050565b7f4d61726b6574206973206e6f74207265736f6c766564207965740000000000005f82015250565b5f6121e1601a83611b2f565b91506121ec826121ad565b602082019050919050565b5f6020820190508181035f83015261220e816121d5565b9050919050565b7f4d61726b6574206e6f7420696e206578706972792070686173650000000000005f82015250565b5f612249601a83611b2f565b915061225482612215565b602082019050919050565b5f6020820190508181035f8301526122768161223d565b9050919050565b7f52657761726420616c726561647920636c61696d6564000000000000000000005f82015250565b5f6122b1601683611b2f565b91506122bc8261227d565b602082019050919050565b5f6020820190508181035f8301526122de816122a5565b9050919050565b5f6040820190506122f85f830185611f39565b6123056020830184611a21565b9392505050565b7f4e6f206465706f73697473206f6e2077696e6e696e67207369646500000000005f82015250565b5f612340601b83611b2f565b915061234b8261230c565b602082019050919050565b5f6020820190508181035f83015261236d81612334565b9050919050565b5f61237e8261190e565b91506123898361190e565b92508282039050818111156123a1576123a0611e5f565b5b92915050565b7f4e487b71000000000000000000000000000000000000000000000000000000005f52602260045260245ffd5b5f60028204905060018216806123eb57607f821691505b6020821081036123fe576123fd6123a7565b5b50919050565b5f6040820190506124175f830185611a7a565b6124246020830184611917565b9392505050565b7f496e76616c6964206e65676174697665207072696365000000000000000000005f82015250565b5f61245f601683611b2f565b915061246a8261242b565b602082019050919050565b5f6020820190508181035f83015261248c81612453565b9050919050565b5f61249d8261184e565b91506124a88361184e565b9250828203905060ff8111156124c1576124c0611e5f565b5b92915050565b5f8160011c9050919050565b5f5f8291508390505b600185111561251c578086048111156124f8576124f7611e5f565b5b60018516156125075780820291505b8081029050612515856124c7565b94506124dc565b94509492505050565b5f8261253457600190506125ef565b81612541575f90506125ef565b8160018114612557576002811461256157612590565b60019150506125ef565b60ff84111561257357612572611e5f565b5b8360020a91508482111561258a57612589611e5f565b5b506125ef565b5060208310610133831016604e8410600b84101617156125c55782820a9050838111156125c0576125bf611e5f565b5b6125ef565b6125d284848460016124d3565b925090508184048111156125e9576125e8611e5f565b5b81810290505b9392505050565b5f6126008261190e565b915061260b8361184e565b92506126387fffffffffffffffffffffffffffffffffffffffffffffffffffffffffffffffff8484612525565b90509291505056fea26469706673582212202eb0dd3cf824041e65a5395084ac448179108f199a4550de99f0c53f4a82916f64736f6c634300081c0033",
        "linkReferences": {}
    },
    "methodIdentifiers": {
        "bid(uint8)": "33500e26",
        "biddingStartTime()": "553fc574",
        "claimReward()": "b88a802f",
        "currentPhase()": "055ad42e",
        "deployTime()": "7a40624b",
        "expireMarket()": "9e891f3e",
        "feePercentage()": "a001ecdd",
        "fees()": "9af1d35a",
        "getChainlinkDataFeedLatestAnswer()": "bea4dfb5",
        "getFinalPrice()": "9ce05df7",
        "hasClaimed(address)": "73b2e80e",
        "hasWithdrawn(address)": "5e2c19db",
        "indexBg()": "f86e83e5",
        "longBids(address)": "1955e146",
        "maturityTime()": "4e8bfdaa",
        "oracleDetails()": "98508ecd",
        "owner()": "8da5cb5b",
        "positions()": "ba5b7982",
        "priceDecimals()": "05300b28",
        "renounceOwnership()": "715018a6",
        "resolveMarket()": "2b9b55b3",
        "resolveTime()": "05ed76c4",
        "resolved()": "3f6fa655",
        "shortBids(address)": "51b72dc5",
        "startBidding()": "7d7b39e4",
        "strikePrice()": "c52987cf",
        "totalDeposited()": "ff50abdc",
        "tradingPair()": "d42f6e39",
        "transferOwnership(address)": "f2fde38b",
        "withdraw()": "3ccfd60b"
    },
    "id": 0
}