{
  "abi": [
    {
      "type": "constructor",
      "inputs": [
        {
          "name": "_strikePrice",
          "type": "int256",
          "internalType": "int256"
        },
        {
          "name": "_owner",
          "type": "address",
          "internalType": "address"
        },
        {
          "name": "_tradingPair",
          "type": "string",
          "internalType": "string"
        },
        {
          "name": "_priceFeedAddress",
          "type": "address",
          "internalType": "address"
        },
        {
          "name": "_maturityTime",
          "type": "uint256",
          "internalType": "uint256"
        },
        {
          "name": "_feePercentage",
          "type": "uint256",
          "internalType": "uint256"
        },
        {
          "name": "_indexBg",
          "type": "uint256",
          "internalType": "uint256"
        }
      ],
      "stateMutability": "nonpayable"
    },
    {
      "type": "function",
      "name": "bid",
      "inputs": [
        {
          "name": "side",
          "type": "uint8",
          "internalType": "enum BinaryOptionMarket.Side"
        }
      ],
      "outputs": [],
      "stateMutability": "payable"
    },
    {
      "type": "function",
      "name": "biddingStartTime",
      "inputs": [],
      "outputs": [
        {
          "name": "",
          "type": "uint256",
          "internalType": "uint256"
        }
      ],
      "stateMutability": "view"
    },
    {
      "type": "function",
      "name": "claimReward",
      "inputs": [],
      "outputs": [],
      "stateMutability": "nonpayable"
    },
    {
      "type": "function",
      "name": "currentPhase",
      "inputs": [],
      "outputs": [
        {
          "name": "",
          "type": "uint8",
          "internalType": "enum BinaryOptionMarket.Phase"
        }
      ],
      "stateMutability": "view"
    },
    {
      "type": "function",
      "name": "deployTime",
      "inputs": [],
      "outputs": [
        {
          "name": "",
          "type": "uint256",
          "internalType": "uint256"
        }
      ],
      "stateMutability": "view"
    },
    {
      "type": "function",
      "name": "expireMarket",
      "inputs": [],
      "outputs": [],
      "stateMutability": "nonpayable"
    },
    {
      "type": "function",
      "name": "feePercentage",
      "inputs": [],
      "outputs": [
        {
          "name": "",
          "type": "uint256",
          "internalType": "uint256"
        }
      ],
      "stateMutability": "view"
    },
    {
      "type": "function",
      "name": "fees",
      "inputs": [],
      "outputs": [
        {
          "name": "poolFee",
          "type": "uint256",
          "internalType": "uint256"
        },
        {
          "name": "creatorFee",
          "type": "uint256",
          "internalType": "uint256"
        },
        {
          "name": "refundFee",
          "type": "uint256",
          "internalType": "uint256"
        }
      ],
      "stateMutability": "view"
    },
    {
      "type": "function",
      "name": "getChainlinkDataFeedLatestAnswer",
      "inputs": [],
      "outputs": [
        {
          "name": "",
          "type": "int256",
          "internalType": "int256"
        }
      ],
      "stateMutability": "view"
    },
    {
      "type": "function",
      "name": "getFinalPrice",
      "inputs": [],
      "outputs": [
        {
          "name": "",
          "type": "int256",
          "internalType": "int256"
        }
      ],
      "stateMutability": "view"
    },
    {
      "type": "function",
      "name": "hasClaimed",
      "inputs": [
        {
          "name": "",
          "type": "address",
          "internalType": "address"
        }
      ],
      "outputs": [
        {
          "name": "",
          "type": "bool",
          "internalType": "bool"
        }
      ],
      "stateMutability": "view"
    },
    {
      "type": "function",
      "name": "indexBg",
      "inputs": [],
      "outputs": [
        {
          "name": "",
          "type": "uint256",
          "internalType": "uint256"
        }
      ],
      "stateMutability": "view"
    },
    {
      "type": "function",
      "name": "longBids",
      "inputs": [
        {
          "name": "",
          "type": "address",
          "internalType": "address"
        }
      ],
      "outputs": [
        {
          "name": "",
          "type": "uint256",
          "internalType": "uint256"
        }
      ],
      "stateMutability": "view"
    },
    {
      "type": "function",
      "name": "maturityTime",
      "inputs": [],
      "outputs": [
        {
          "name": "",
          "type": "uint256",
          "internalType": "uint256"
        }
      ],
      "stateMutability": "view"
    },
    {
      "type": "function",
      "name": "oracleDetails",
      "inputs": [],
      "outputs": [
        {
          "name": "strikePrice",
          "type": "int256",
          "internalType": "int256"
        },
        {
          "name": "finalPrice",
          "type": "int256",
          "internalType": "int256"
        }
      ],
      "stateMutability": "view"
    },
    {
      "type": "function",
      "name": "owner",
      "inputs": [],
      "outputs": [
        {
          "name": "",
          "type": "address",
          "internalType": "address"
        }
      ],
      "stateMutability": "view"
    },
    {
      "type": "function",
      "name": "positions",
      "inputs": [],
      "outputs": [
        {
          "name": "long",
          "type": "uint256",
          "internalType": "uint256"
        },
        {
          "name": "short",
          "type": "uint256",
          "internalType": "uint256"
        }
      ],
      "stateMutability": "view"
    },
    {
      "type": "function",
      "name": "priceDecimals",
      "inputs": [],
      "outputs": [
        {
          "name": "",
          "type": "uint8",
          "internalType": "uint8"
        }
      ],
      "stateMutability": "view"
    },
    {
      "type": "function",
      "name": "renounceOwnership",
      "inputs": [],
      "outputs": [],
      "stateMutability": "nonpayable"
    },
    {
      "type": "function",
      "name": "resolveMarket",
      "inputs": [],
      "outputs": [],
      "stateMutability": "nonpayable"
    },
    {
      "type": "function",
      "name": "resolveTime",
      "inputs": [],
      "outputs": [
        {
          "name": "",
          "type": "uint256",
          "internalType": "uint256"
        }
      ],
      "stateMutability": "view"
    },
    {
      "type": "function",
      "name": "resolved",
      "inputs": [],
      "outputs": [
        {
          "name": "",
          "type": "bool",
          "internalType": "bool"
        }
      ],
      "stateMutability": "view"
    },
    {
      "type": "function",
      "name": "shortBids",
      "inputs": [
        {
          "name": "",
          "type": "address",
          "internalType": "address"
        }
      ],
      "outputs": [
        {
          "name": "",
          "type": "uint256",
          "internalType": "uint256"
        }
      ],
      "stateMutability": "view"
    },
    {
      "type": "function",
      "name": "startBidding",
      "inputs": [],
      "outputs": [],
      "stateMutability": "nonpayable"
    },
    {
      "type": "function",
      "name": "strikePrice",
      "inputs": [],
      "outputs": [
        {
          "name": "",
          "type": "uint256",
          "internalType": "uint256"
        }
      ],
      "stateMutability": "view"
    },
    {
      "type": "function",
      "name": "totalDeposited",
      "inputs": [],
      "outputs": [
        {
          "name": "",
          "type": "uint256",
          "internalType": "uint256"
        }
      ],
      "stateMutability": "view"
    },
    {
      "type": "function",
      "name": "tradingPair",
      "inputs": [],
      "outputs": [
        {
          "name": "",
          "type": "string",
          "internalType": "string"
        }
      ],
      "stateMutability": "view"
    },
    {
      "type": "function",
      "name": "transferOwnership",
      "inputs": [
        {
          "name": "newOwner",
          "type": "address",
          "internalType": "address"
        }
      ],
      "outputs": [],
      "stateMutability": "nonpayable"
    },
    {
      "type": "function",
      "name": "withdraw",
      "inputs": [],
      "outputs": [],
      "stateMutability": "nonpayable"
    },
    {
      "type": "event",
      "name": "Bid",
      "inputs": [
        {
          "name": "side",
          "type": "uint8",
          "indexed": false,
          "internalType": "enum BinaryOptionMarket.Side"
        },
        {
          "name": "account",
          "type": "address",
          "indexed": true,
          "internalType": "address"
        },
        {
          "name": "value",
          "type": "uint256",
          "indexed": false,
          "internalType": "uint256"
        }
      ],
      "anonymous": false
    },
    {
      "type": "event",
      "name": "MarketOutcome",
      "inputs": [
        {
          "name": "winningSide",
          "type": "uint8",
          "indexed": false,
          "internalType": "enum BinaryOptionMarket.Side"
        },
        {
          "name": "user",
          "type": "address",
          "indexed": true,
          "internalType": "address"
        },
        {
          "name": "isWinner",
          "type": "bool",
          "indexed": false,
          "internalType": "bool"
        }
      ],
      "anonymous": false
    },
    {
      "type": "event",
      "name": "MarketResolved",
      "inputs": [
        {
          "name": "finalPrice",
          "type": "int256",
          "indexed": false,
          "internalType": "int256"
        },
        {
          "name": "timeStamp",
          "type": "uint256",
          "indexed": false,
          "internalType": "uint256"
        }
      ],
      "anonymous": false
    },
    {
      "type": "event",
      "name": "OwnershipTransferred",
      "inputs": [
        {
          "name": "previousOwner",
          "type": "address",
          "indexed": true,
          "internalType": "address"
        },
        {
          "name": "newOwner",
          "type": "address",
          "indexed": true,
          "internalType": "address"
        }
      ],
      "anonymous": false
    },
    {
      "type": "event",
      "name": "PositionUpdated",
      "inputs": [
        {
          "name": "timestamp",
          "type": "uint256",
          "indexed": false,
          "internalType": "uint256"
        },
        {
          "name": "longAmount",
          "type": "uint256",
          "indexed": false,
          "internalType": "uint256"
        },
        {
          "name": "shortAmount",
          "type": "uint256",
          "indexed": false,
          "internalType": "uint256"
        },
        {
          "name": "totalDeposited",
          "type": "uint256",
          "indexed": false,
          "internalType": "uint256"
        }
      ],
      "anonymous": false
    },
    {
      "type": "event",
      "name": "RewardClaimed",
      "inputs": [
        {
          "name": "account",
          "type": "address",
          "indexed": true,
          "internalType": "address"
        },
        {
          "name": "value",
          "type": "uint256",
          "indexed": false,
          "internalType": "uint256"
        }
      ],
      "anonymous": false
    },
    {
      "type": "event",
      "name": "Withdrawal",
      "inputs": [
        {
          "name": "user",
          "type": "address",
          "indexed": true,
          "internalType": "address"
        },
        {
          "name": "amount",
          "type": "uint256",
          "indexed": false,
          "internalType": "uint256"
        }
      ],
      "anonymous": false
    },
    {
      "type": "error",
      "name": "OwnableInvalidOwner",
      "inputs": [
        {
          "name": "owner",
          "type": "address",
          "internalType": "address"
        }
      ]
    },
    {
      "type": "error",
      "name": "OwnableUnauthorizedAccount",
      "inputs": [
        {
          "name": "account",
          "type": "address",
          "internalType": "address"
        }
      ]
    }
  ],
  "bytecode": {
    "object": "0x608060405234801561000f575f5ffd5b506040516132a33803806132a383398181016040528101906100319190610740565b855f73ffffffffffffffffffffffffffffffffffffffff168173ffffffffffffffffffffffffffffffffffffffff16036100a2575f6040517f1e4fbdf70000000000000000000000000000000000000000000000000000000081526004016100999190610808565b60405180910390fd5b6100b18161031b60201b60201c565b504283116100f4576040517f08c379a00000000000000000000000000000000000000000000000000000000081526004016100eb906108a1565b60405180910390fd5b60018210158015610106575060c88211155b610145576040517f08c379a000000000000000000000000000000000000000000000000000000000815260040161013c90610909565b60405180910390fd5b600181101580156101575750600a8111155b610196576040517f08c379a000000000000000000000000000000000000000000000000000000000815260040161018d90610997565b60405180910390fd5b60405180604001604052808881526020018881525060015f820151815f01556020820151816001015590505084601190816101d19190610bbc565b50826007819055504260058190555081601081905550806012819055508360035f6101000a81548173ffffffffffffffffffffffffffffffffffffffff021916908373ffffffffffffffffffffffffffffffffffffffff16021790555060035f9054906101000a900473ffffffffffffffffffffffffffffffffffffffff1673ffffffffffffffffffffffffffffffffffffffff1663313ce5676040518163ffffffff1660e01b8152600401602060405180830381865afa158015610298573d5f5f3e3d5ffd5b505050506040513d601f19601f820116820180604052508101906102bc9190610cc1565b600360146101000a81548160ff021916908360ff1602179055505f600f60016101000a81548160ff021916908360038111156102fb576102fa610cec565b5b021790555061030f336103dc60201b60201c565b50505050505050610d19565b5f5f5f9054906101000a900473ffffffffffffffffffffffffffffffffffffffff169050815f5f6101000a81548173ffffffffffffffffffffffffffffffffffffffff021916908373ffffffffffffffffffffffffffffffffffffffff1602179055508173ffffffffffffffffffffffffffffffffffffffff168173ffffffffffffffffffffffffffffffffffffffff167f8be0079c531659141344cd1fd0a4f28419497f9722a3daafe3b4186f6b6457e060405160405180910390a35050565b6103ea61046c60201b60201c565b5f73ffffffffffffffffffffffffffffffffffffffff168173ffffffffffffffffffffffffffffffffffffffff160361045a575f6040517f1e4fbdf70000000000000000000000000000000000000000000000000000000081526004016104519190610808565b60405180910390fd5b6104698161031b60201b60201c565b50565b61047a61050560201b60201c565b73ffffffffffffffffffffffffffffffffffffffff1661049e61050c60201b60201c565b73ffffffffffffffffffffffffffffffffffffffff1614610503576104c761050560201b60201c565b6040517f118cdaa70000000000000000000000000000000000000000000000000000000081526004016104fa9190610808565b60405180910390fd5b565b5f33905090565b5f5f5f9054906101000a900473ffffffffffffffffffffffffffffffffffffffff16905090565b5f604051905090565b5f5ffd5b5f5ffd5b5f819050919050565b61055681610544565b8114610560575f5ffd5b50565b5f815190506105718161054d565b92915050565b5f73ffffffffffffffffffffffffffffffffffffffff82169050919050565b5f6105a082610577565b9050919050565b6105b081610596565b81146105ba575f5ffd5b50565b5f815190506105cb816105a7565b92915050565b5f5ffd5b5f5ffd5b5f601f19601f8301169050919050565b7f4e487b71000000000000000000000000000000000000000000000000000000005f52604160045260245ffd5b61061f826105d9565b810181811067ffffffffffffffff8211171561063e5761063d6105e9565b5b80604052505050565b5f610650610533565b905061065c8282610616565b919050565b5f67ffffffffffffffff82111561067b5761067a6105e9565b5b610684826105d9565b9050602081019050919050565b8281835e5f83830152505050565b5f6106b16106ac84610661565b610647565b9050828152602081018484840111156106cd576106cc6105d5565b5b6106d8848285610691565b509392505050565b5f82601f8301126106f4576106f36105d1565b5b815161070484826020860161069f565b91505092915050565b5f819050919050565b61071f8161070d565b8114610729575f5ffd5b50565b5f8151905061073a81610716565b92915050565b5f5f5f5f5f5f5f60e0888a03121561075b5761075a61053c565b5b5f6107688a828b01610563565b97505060206107798a828b016105bd565b965050604088015167ffffffffffffffff81111561079a57610799610540565b5b6107a68a828b016106e0565b95505060606107b78a828b016105bd565b94505060806107c88a828b0161072c565b93505060a06107d98a828b0161072c565b92505060c06107ea8a828b0161072c565b91505092959891949750929550565b61080281610596565b82525050565b5f60208201905061081b5f8301846107f9565b92915050565b5f82825260208201905092915050565b7f4d617475726974792074696d65206d75737420626520696e20746865206675745f8201527f7572650000000000000000000000000000000000000000000000000000000000602082015250565b5f61088b602383610821565b915061089682610831565b604082019050919050565b5f6020820190508181035f8301526108b88161087f565b9050919050565b7f466565206d757374206265206265747765656e20302e312520616e64203230255f82015250565b5f6108f3602083610821565b91506108fe826108bf565b602082019050919050565b5f6020820190508181035f830152610920816108e7565b9050919050565b7f496e646578206261636b67726f756e64206d757374206265206265747765656e5f8201527f203120616e642031300000000000000000000000000000000000000000000000602082015250565b5f610981602983610821565b915061098c82610927565b604082019050919050565b5f6020820190508181035f8301526109ae81610975565b9050919050565b5f81519050919050565b7f4e487b71000000000000000000000000000000000000000000000000000000005f52602260045260245ffd5b5f6002820490506001821680610a0357607f821691505b602082108103610a1657610a156109bf565b5b50919050565b5f819050815f5260205f209050919050565b5f6020601f8301049050919050565b5f82821b905092915050565b5f60088302610a787fffffffffffffffffffffffffffffffffffffffffffffffffffffffffffffffff82610a3d565b610a828683610a3d565b95508019841693508086168417925050509392505050565b5f819050919050565b5f610abd610ab8610ab38461070d565b610a9a565b61070d565b9050919050565b5f819050919050565b610ad683610aa3565b610aea610ae282610ac4565b848454610a49565b825550505050565b5f5f905090565b610b01610af2565b610b0c818484610acd565b505050565b5b81811015610b2f57610b245f82610af9565b600181019050610b12565b5050565b601f821115610b7457610b4581610a1c565b610b4e84610a2e565b81016020851015610b5d578190505b610b71610b6985610a2e565b830182610b11565b50505b505050565b5f82821c905092915050565b5f610b945f1984600802610b79565b1980831691505092915050565b5f610bac8383610b85565b9150826002028217905092915050565b610bc5826109b5565b67ffffffffffffffff811115610bde57610bdd6105e9565b5b610be882546109ec565b610bf3828285610b33565b5f60209050601f831160018114610c24575f8415610c12578287015190505b610c1c8582610ba1565b865550610c83565b601f198416610c3286610a1c565b5f5b82811015610c5957848901518255600182019150602085019450602081019050610c34565b86831015610c765784890151610c72601f891682610b85565b8355505b6001600288020188555050505b505050505050565b5f60ff82169050919050565b610ca081610c8b565b8114610caa575f5ffd5b50565b5f81519050610cbb81610c97565b92915050565b5f60208284031215610cd657610cd561053c565b5b5f610ce384828501610cad565b91505092915050565b7f4e487b71000000000000000000000000000000000000000000000000000000005f52602160045260245ffd5b61257d80610d265f395ff3fe6080604052600436106101c1575f3560e01c80637d7b39e4116100f6578063b88a802f11610094578063d42f6e3911610063578063d42f6e3914610593578063f2fde38b146105bd578063f86e83e5146105e5578063ff50abdc1461060f576101c1565b8063b88a802f146104fe578063ba5b798214610514578063bea4dfb51461053f578063c52987cf14610569576101c1565b80639af1d35a116100d05780639af1d35a146104685780639ce05df7146104945780639e891f3e146104be578063a001ecdd146104d4576101c1565b80637d7b39e4146103fd5780638da5cb5b1461041357806398508ecd1461043d576101c1565b80633f6fa65511610163578063553fc5741161013d578063553fc57414610357578063715018a61461038157806373b2e80e146103975780637a40624b146103d3576101c1565b80633f6fa655146102c75780634e8bfdaa146102f157806351b72dc51461031b576101c1565b80631955e1461161019f5780631955e146146102435780632b9b55b31461027f57806333500e26146102955780633ccfd60b146102b1576101c1565b806305300b28146101c5578063055ad42e146101ef57806305ed76c414610219575b5f5ffd5b3480156101d0575f5ffd5b506101d9610639565b6040516101e69190611770565b60405180910390f35b3480156101fa575f5ffd5b5061020361064c565b60405161021091906117fc565b60405180910390f35b348015610224575f5ffd5b5061022d61065f565b60405161023a919061182d565b60405180910390f35b34801561024e575f5ffd5b50610269600480360381019061026491906118a4565b610665565b604051610276919061182d565b60405180910390f35b34801561028a575f5ffd5b5061029361067a565b005b6102af60048036038101906102aa91906118f2565b61080c565b005b3480156102bc575f5ffd5b506102c5610a83565b005b3480156102d2575f5ffd5b506102db610bc5565b6040516102e89190611937565b60405180910390f35b3480156102fc575f5ffd5b50610305610bd7565b604051610312919061182d565b60405180910390f35b348015610326575f5ffd5b50610341600480360381019061033c91906118a4565b610bdd565b60405161034e919061182d565b60405180910390f35b348015610362575f5ffd5b5061036b610bf2565b604051610378919061182d565b60405180910390f35b34801561038c575f5ffd5b50610395610bf8565b005b3480156103a2575f5ffd5b506103bd60048036038101906103b891906118a4565b610c0b565b6040516103ca9190611937565b60405180910390f35b3480156103de575f5ffd5b506103e7610c28565b6040516103f4919061182d565b60405180910390f35b348015610408575f5ffd5b50610411610c2e565b005b34801561041e575f5ffd5b50610427610cdf565b604051610434919061195f565b60405180910390f35b348015610448575f5ffd5b50610451610d06565b60405161045f929190611990565b60405180910390f35b348015610473575f5ffd5b5061047c610d17565b60405161048b939291906119b7565b60405180910390f35b34801561049f575f5ffd5b506104a8610d2e565b6040516104b591906119ec565b60405180910390f35b3480156104c9575f5ffd5b506104d2610d39565b005b3480156104df575f5ffd5b506104e8610e39565b6040516104f5919061182d565b60405180910390f35b348015610509575f5ffd5b50610512610e3f565b005b34801561051f575f5ffd5b50610528611259565b604051610536929190611a05565b60405180910390f35b34801561054a575f5ffd5b5061055361126a565b60405161056091906119ec565b60405180910390f35b348015610574575f5ffd5b5061057d611307565b60405161058a919061182d565b60405180910390f35b34801561059e575f5ffd5b506105a761130d565b6040516105b49190611a9c565b60405180910390f35b3480156105c8575f5ffd5b506105e360048036038101906105de91906118a4565b611399565b005b3480156105f0575f5ffd5b506105f961141d565b604051610606919061182d565b60405180910390f35b34801561061a575f5ffd5b50610623611423565b604051610630919061182d565b60405180910390f35b600360149054906101000a900460ff1681565b600f60019054906101000a900460ff1681565b60085481565b6013602052805f5260405f205f915090505481565b6001600381111561068e5761068d611789565b5b600f60019054906101000a900460ff1660038111156106b0576106af611789565b5b146106f0576040517f08c379a00000000000000000000000000000000000000000000000000000000081526004016106e790611b06565b60405180910390fd5b600754421015610735576040517f08c379a000000000000000000000000000000000000000000000000000000000815260040161072c90611b6e565b60405180910390fd5b6002600f60016101000a81548160ff0219169083600381111561075b5761075a611789565b5b0217905550426008819055505f5f60035f9054906101000a900473ffffffffffffffffffffffffffffffffffffffff1673ffffffffffffffffffffffffffffffffffffffff1663feaf968c6040518163ffffffff1660e01b815260040160a060405180830381865afa1580156107d3573d5f5f3e3d5ffd5b505050506040513d601f19601f820116820180604052508101906107f79190611c1f565b509350509250506108088282611429565b5050565b600160038111156108205761081f611789565b5b600f60019054906101000a900460ff16600381111561084257610841611789565b5b14610882576040517f08c379a000000000000000000000000000000000000000000000000000000000815260040161087990611ce0565b60405180910390fd5b5f34116108c4576040517f08c379a00000000000000000000000000000000000000000000000000000000081526004016108bb90611d48565b60405180910390fd5b5f60018111156108d7576108d6611789565b5b8160018111156108ea576108e9611789565b5b03610961573460095f015f8282546109029190611d93565b925050819055503460135f3373ffffffffffffffffffffffffffffffffffffffff1673ffffffffffffffffffffffffffffffffffffffff1681526020019081526020015f205f8282546109559190611d93565b925050819055506109d0565b3460096001015f8282546109759190611d93565b925050819055503460145f3373ffffffffffffffffffffffffffffffffffffffff1673ffffffffffffffffffffffffffffffffffffffff1681526020019081526020015f205f8282546109c89190611d93565b925050819055505b34600e5f8282546109e19190611d93565b925050819055507f5fd7e45cc570ececa5a25e81af5f4acc6a2456c0fb1eee17751ec71677d32f3c4260095f0154600960010154600e54604051610a289493929190611dc6565b60405180910390a13373ffffffffffffffffffffffffffffffffffffffff167f70bd4a33bf447720d717d08f3affb5aecfe4d2ebb8e3dd94539f5313e24476438234604051610a78929190611e4f565b60405180910390a250565b610a8b611536565b5f6103e8601054600e54610a9f9190611e76565b610aa99190611ee4565b90505f8111610aed576040517f08c379a0000000000000000000000000000000000000000000000000000000008152600401610ae490611f5e565b60405180910390fd5b80471015610b30576040517f08c379a0000000000000000000000000000000000000000000000000000000008152600401610b2790611fc6565b60405180910390fd5b3373ffffffffffffffffffffffffffffffffffffffff166108fc8290811502906040515f60405180830381858888f19350505050158015610b73573d5f5f3e3d5ffd5b503373ffffffffffffffffffffffffffffffffffffffff167f7fcf532c15f0a6db0bd6d0e038bea71d30d808c7d98cb3bf7268a95bf5081b6582604051610bba919061182d565b60405180910390a250565b600f5f9054906101000a900460ff1681565b60075481565b6014602052805f5260405f205f915090505481565b60065481565b610c00611536565b610c095f6115bd565b565b6015602052805f5260405f205f915054906101000a900460ff1681565b60055481565b610c36611536565b5f6003811115610c4957610c48611789565b5b600f60019054906101000a900460ff166003811115610c6b57610c6a611789565b5b14610cab576040517f08c379a0000000000000000000000000000000000000000000000000000000008152600401610ca29061202e565b60405180910390fd5b426006819055506001600f60016101000a81548160ff02191690836003811115610cd857610cd7611789565b5b0217905550565b5f5f5f9054906101000a900473ffffffffffffffffffffffffffffffffffffffff16905090565b6001805f0154908060010154905082565b600b805f0154908060010154908060020154905083565b5f6001800154905090565b610d41611536565b60026003811115610d5557610d54611789565b5b600f60019054906101000a900460ff166003811115610d7757610d76611789565b5b14610db7576040517f08c379a0000000000000000000000000000000000000000000000000000000008152600401610dae90612096565b60405180910390fd5b60011515600f5f9054906101000a900460ff16151514610e0c576040517f08c379a0000000000000000000000000000000000000000000000000000000008152600401610e03906120fe565b60405180910390fd5b6003600f60016101000a81548160ff02191690836003811115610e3257610e31611789565b5b0217905550565b60105481565b600380811115610e5257610e51611789565b5b600f60019054906101000a900460ff166003811115610e7457610e73611789565b5b14610eb4576040517f08c379a0000000000000000000000000000000000000000000000000000000008152600401610eab90612166565b60405180910390fd5b600f5f9054906101000a900460ff16610f02576040517f08c379a0000000000000000000000000000000000000000000000000000000008152600401610ef9906120fe565b60405180910390fd5b60155f3373ffffffffffffffffffffffffffffffffffffffff1673ffffffffffffffffffffffffffffffffffffffff1681526020019081526020015f205f9054906101000a900460ff1615610f8c576040517f08c379a0000000000000000000000000000000000000000000000000000000008152600401610f83906121ce565b60405180910390fd5b5f600180015490505f60015f01548212610fa8575f9050610fad565b600190505b5f5f5f5f90505f6001811115610fc657610fc5611789565b5b846001811115610fd957610fd8611789565b5b036110375760135f3373ffffffffffffffffffffffffffffffffffffffff1673ffffffffffffffffffffffffffffffffffffffff1681526020019081526020015f2054925060095f015491505f83111561103257600190505b61108d565b60145f3373ffffffffffffffffffffffffffffffffffffffff1673ffffffffffffffffffffffffffffffffffffffff1681526020019081526020015f2054925060096001015491505f83111561108c57600190505b5b3373ffffffffffffffffffffffffffffffffffffffff167fcaf126c1b7df3cc94d90d37f4a60f866c0c7c56f50d45e3136fc1dc71e210eba85836040516110d59291906121ec565b60405180910390a25f831161111f576040517f08c379a00000000000000000000000000000000000000000000000000000000081526004016111169061225d565b60405180910390fd5b5f82600e548561112f9190611e76565b6111399190611ee4565b90505f6103e86010548361114d9190611e76565b6111579190611ee4565b90505f8183611166919061227b565b9050600160155f3373ffffffffffffffffffffffffffffffffffffffff1673ffffffffffffffffffffffffffffffffffffffff1681526020019081526020015f205f6101000a81548160ff0219169083151502179055503373ffffffffffffffffffffffffffffffffffffffff166108fc8290811502906040515f60405180830381858888f19350505050158015611200573d5f5f3e3d5ffd5b503373ffffffffffffffffffffffffffffffffffffffff167f106f923f993c2149d49b4255ff723acafa1f2d94393f561d3eda32ae348f724182604051611247919061182d565b60405180910390a25050505050505050565b6009805f0154908060010154905082565b5f5f60035f9054906101000a900473ffffffffffffffffffffffffffffffffffffffff1673ffffffffffffffffffffffffffffffffffffffff1663feaf968c6040518163ffffffff1660e01b815260040160a060405180830381865afa1580156112d6573d5f5f3e3d5ffd5b505050506040513d601f19601f820116820180604052508101906112fa9190611c1f565b5050509150508091505090565b60045481565b6011805461131a906122db565b80601f0160208091040260200160405190810160405280929190818152602001828054611346906122db565b80156113915780601f1061136857610100808354040283529160200191611391565b820191905f5260205f20905b81548152906001019060200180831161137457829003601f168201915b505050505081565b6113a1611536565b5f73ffffffffffffffffffffffffffffffffffffffff168173ffffffffffffffffffffffffffffffffffffffff1603611411575f6040517f1e4fbdf7000000000000000000000000000000000000000000000000000000008152600401611408919061195f565b60405180910390fd5b61141a816115bd565b50565b60125481565b600e5481565b5f8290505f8290505f61143b8361167e565b90506001600f5f6101000a81548160ff0219169083151502179055506002600f60016101000a81548160ff0219169083600381111561147d5761147c611789565b5b02179055508060018001819055507f9fd8e2fb430a5a31913b0b0ba4cb3a01b11cc041c6a81ac719f9db32aa5f052d83836040516114bc92919061230b565b60405180910390a15f60015f015484126114d8575f90506114dd565b600190505b5f73ffffffffffffffffffffffffffffffffffffffff167fcaf126c1b7df3cc94d90d37f4a60f866c0c7c56f50d45e3136fc1dc71e210eba8260016040516115269291906121ec565b60405180910390a2505050505050565b61153e61174e565b73ffffffffffffffffffffffffffffffffffffffff1661155c610cdf565b73ffffffffffffffffffffffffffffffffffffffff16146115bb5761157f61174e565b6040517f118cdaa70000000000000000000000000000000000000000000000000000000081526004016115b2919061195f565b60405180910390fd5b565b5f5f5f9054906101000a900473ffffffffffffffffffffffffffffffffffffffff169050815f5f6101000a81548173ffffffffffffffffffffffffffffffffffffffff021916908373ffffffffffffffffffffffffffffffffffffffff1602179055508173ffffffffffffffffffffffffffffffffffffffff168173ffffffffffffffffffffffffffffffffffffffff167f8be0079c531659141344cd1fd0a4f28419497f9722a3daafe3b4186f6b6457e060405160405180910390a35050565b5f5f8212156116c2576040517f08c379a00000000000000000000000000000000000000000000000000000000081526004016116b99061237c565b60405180910390fd5b5f600360149054906101000a900460ff16905060088160ff16036116e95782915050611749565b60088160ff16101561172157806008611702919061239a565b600a61170e91906124fd565b836117199190611e76565b915050611749565b60088161172e919061239a565b600a61173a91906124fd565b836117459190611ee4565b9150505b919050565b5f33905090565b5f60ff82169050919050565b61176a81611755565b82525050565b5f6020820190506117835f830184611761565b92915050565b7f4e487b71000000000000000000000000000000000000000000000000000000005f52602160045260245ffd5b600481106117c7576117c6611789565b5b50565b5f8190506117d7826117b6565b919050565b5f6117e6826117ca565b9050919050565b6117f6816117dc565b82525050565b5f60208201905061180f5f8301846117ed565b92915050565b5f819050919050565b61182781611815565b82525050565b5f6020820190506118405f83018461181e565b92915050565b5f5ffd5b5f73ffffffffffffffffffffffffffffffffffffffff82169050919050565b5f6118738261184a565b9050919050565b61188381611869565b811461188d575f5ffd5b50565b5f8135905061189e8161187a565b92915050565b5f602082840312156118b9576118b8611846565b5b5f6118c684828501611890565b91505092915050565b600281106118db575f5ffd5b50565b5f813590506118ec816118cf565b92915050565b5f6020828403121561190757611906611846565b5b5f611914848285016118de565b91505092915050565b5f8115159050919050565b6119318161191d565b82525050565b5f60208201905061194a5f830184611928565b92915050565b61195981611869565b82525050565b5f6020820190506119725f830184611950565b92915050565b5f819050919050565b61198a81611978565b82525050565b5f6040820190506119a35f830185611981565b6119b06020830184611981565b9392505050565b5f6060820190506119ca5f83018661181e565b6119d7602083018561181e565b6119e4604083018461181e565b949350505050565b5f6020820190506119ff5f830184611981565b92915050565b5f604082019050611a185f83018561181e565b611a25602083018461181e565b9392505050565b5f81519050919050565b5f82825260208201905092915050565b8281835e5f83830152505050565b5f601f19601f8301169050919050565b5f611a6e82611a2c565b611a788185611a36565b9350611a88818560208601611a46565b611a9181611a54565b840191505092915050565b5f6020820190508181035f830152611ab48184611a64565b905092915050565b7f4d61726b6574206e6f7420696e2062696464696e6720706861736500000000005f82015250565b5f611af0601b83611a36565b9150611afb82611abc565b602082019050919050565b5f6020820190508181035f830152611b1d81611ae4565b9050919050565b7f546f6f206561726c7920746f207265736f6c76650000000000000000000000005f82015250565b5f611b58601483611a36565b9150611b6382611b24565b602082019050919050565b5f6020820190508181035f830152611b8581611b4c565b9050919050565b5f69ffffffffffffffffffff82169050919050565b611baa81611b8c565b8114611bb4575f5ffd5b50565b5f81519050611bc581611ba1565b92915050565b611bd481611978565b8114611bde575f5ffd5b50565b5f81519050611bef81611bcb565b92915050565b611bfe81611815565b8114611c08575f5ffd5b50565b5f81519050611c1981611bf5565b92915050565b5f5f5f5f5f60a08688031215611c3857611c37611846565b5b5f611c4588828901611bb7565b9550506020611c5688828901611be1565b9450506040611c6788828901611c0b565b9350506060611c7888828901611c0b565b9250506080611c8988828901611bb7565b9150509295509295909350565b7f4e6f7420696e2062696464696e672070686173650000000000000000000000005f82015250565b5f611cca601483611a36565b9150611cd582611c96565b602082019050919050565b5f6020820190508181035f830152611cf781611cbe565b9050919050565b7f56616c7565206d7573742062652067726561746572207468616e207a65726f005f82015250565b5f611d32601f83611a36565b9150611d3d82611cfe565b602082019050919050565b5f6020820190508181035f830152611d5f81611d26565b9050919050565b7f4e487b71000000000000000000000000000000000000000000000000000000005f52601160045260245ffd5b5f611d9d82611815565b9150611da883611815565b9250828201905080821115611dc057611dbf611d66565b5b92915050565b5f608082019050611dd95f83018761181e565b611de6602083018661181e565b611df3604083018561181e565b611e00606083018461181e565b95945050505050565b60028110611e1a57611e19611789565b5b50565b5f819050611e2a82611e09565b919050565b5f611e3982611e1d565b9050919050565b611e4981611e2f565b82525050565b5f604082019050611e625f830185611e40565b611e6f602083018461181e565b9392505050565b5f611e8082611815565b9150611e8b83611815565b9250828202611e9981611815565b91508282048414831517611eb057611eaf611d66565b5b5092915050565b7f4e487b71000000000000000000000000000000000000000000000000000000005f52601260045260245ffd5b5f611eee82611815565b9150611ef983611815565b925082611f0957611f08611eb7565b5b828204905092915050565b7f4e6f2066656520746f2077697468647261772e000000000000000000000000005f82015250565b5f611f48601383611a36565b9150611f5382611f14565b602082019050919050565b5f6020820190508181035f830152611f7581611f3c565b9050919050565b7f496e73756666696369656e7420636f6e74726163742062616c616e63652e00005f82015250565b5f611fb0601e83611a36565b9150611fbb82611f7c565b602082019050919050565b5f6020820190508181035f830152611fdd81611fa4565b9050919050565b7f4d61726b6574206e6f7420696e2074726164696e6720706861736500000000005f82015250565b5f612018601b83611a36565b915061202382611fe4565b602082019050919050565b5f6020820190508181035f8301526120458161200c565b9050919050565b7f4d61726b6574206e6f7420696e206d61747572697479207068617365000000005f82015250565b5f612080601c83611a36565b915061208b8261204c565b602082019050919050565b5f6020820190508181035f8301526120ad81612074565b9050919050565b7f4d61726b6574206973206e6f74207265736f6c766564207965740000000000005f82015250565b5f6120e8601a83611a36565b91506120f3826120b4565b602082019050919050565b5f6020820190508181035f830152612115816120dc565b9050919050565b7f4d61726b6574206e6f7420696e206578706972792070686173650000000000005f82015250565b5f612150601a83611a36565b915061215b8261211c565b602082019050919050565b5f6020820190508181035f83015261217d81612144565b9050919050565b7f52657761726420616c726561647920636c61696d6564000000000000000000005f82015250565b5f6121b8601683611a36565b91506121c382612184565b602082019050919050565b5f6020820190508181035f8301526121e5816121ac565b9050919050565b5f6040820190506121ff5f830185611e40565b61220c6020830184611928565b9392505050565b7f4e6f206465706f73697473206f6e2077696e6e696e67207369646500000000005f82015250565b5f612247601b83611a36565b915061225282612213565b602082019050919050565b5f6020820190508181035f8301526122748161223b565b9050919050565b5f61228582611815565b915061229083611815565b92508282039050818111156122a8576122a7611d66565b5b92915050565b7f4e487b71000000000000000000000000000000000000000000000000000000005f52602260045260245ffd5b5f60028204905060018216806122f257607f821691505b602082108103612305576123046122ae565b5b50919050565b5f60408201905061231e5f830185611981565b61232b602083018461181e565b9392505050565b7f496e76616c6964206e65676174697665207072696365000000000000000000005f82015250565b5f612366601683611a36565b915061237182612332565b602082019050919050565b5f6020820190508181035f8301526123938161235a565b9050919050565b5f6123a482611755565b91506123af83611755565b9250828203905060ff8111156123c8576123c7611d66565b5b92915050565b5f8160011c9050919050565b5f5f8291508390505b6001851115612423578086048111156123ff576123fe611d66565b5b600185161561240e5780820291505b808102905061241c856123ce565b94506123e3565b94509492505050565b5f8261243b57600190506124f6565b81612448575f90506124f6565b816001811461245e576002811461246857612497565b60019150506124f6565b60ff84111561247a57612479611d66565b5b8360020a91508482111561249157612490611d66565b5b506124f6565b5060208310610133831016604e8410600b84101617156124cc5782820a9050838111156124c7576124c6611d66565b5b6124f6565b6124d984848460016123da565b925090508184048111156124f0576124ef611d66565b5b81810290505b9392505050565b5f61250782611815565b915061251283611755565b925061253f7fffffffffffffffffffffffffffffffffffffffffffffffffffffffffffffffff848461242c565b90509291505056fea2646970667358221220821dfb194968d53aa193638e719089bceb4a41291804f012ecd39ca8a4f91fd964736f6c634300081c0033",
    "linkReferences": {}
  },
  "methodIdentifiers": {
    "bid(uint8)": "33500e26",
    "biddingStartTime()": "553fc574",
    "claimReward()": "b88a802f",
    "currentPhase()": "055ad42e",
    "deployTime()": "7a40624b",
    "expireMarket()": "9e891f3e",
    "feePercentage()": "a001ecdd",
    "fees()": "9af1d35a",
    "getChainlinkDataFeedLatestAnswer()": "bea4dfb5",
    "getFinalPrice()": "9ce05df7",
    "hasClaimed(address)": "73b2e80e",
    "indexBg()": "f86e83e5",
    "longBids(address)": "1955e146",
    "maturityTime()": "4e8bfdaa",
    "oracleDetails()": "98508ecd",
    "owner()": "8da5cb5b",
    "positions()": "ba5b7982",
    "priceDecimals()": "05300b28",
    "renounceOwnership()": "715018a6",
    "resolveMarket()": "2b9b55b3",
    "resolveTime()": "05ed76c4",
    "resolved()": "3f6fa655",
    "shortBids(address)": "51b72dc5",
    "startBidding()": "7d7b39e4",
    "strikePrice()": "c52987cf",
    "totalDeposited()": "ff50abdc",
    "tradingPair()": "d42f6e39",
    "transferOwnership(address)": "f2fde38b",
    "withdraw()": "3ccfd60b"
  },
  "id": 0
}