{
    "abi": [
        {
            "type": "function",
            "name": "deploy",
            "inputs": [
                {
                    "name": "contractAddress",
                    "type": "address",
                    "internalType": "address"
                }
            ],
            "outputs": [],
            "stateMutability": "nonpayable"
        },
        {
            "type": "function",
            "name": "getContractsByOwner",
            "inputs": [
                {
                    "name": "owner",
                    "type": "address",
                    "internalType": "address"
                }
            ],
            "outputs": [
                {
                    "name": "",
                    "type": "address[]",
                    "internalType": "address[]"
                }
            ],
            "stateMutability": "view"
        },
        {
            "type": "function",
            "name": "ownerContracts",
            "inputs": [
                {
                    "name": "",
                    "type": "address",
                    "internalType": "address"
                },
                {
                    "name": "",
                    "type": "uint256",
                    "internalType": "uint256"
                }
            ],
            "outputs": [
                {
                    "name": "",
                    "type": "address",
                    "internalType": "address"
                }
            ],
            "stateMutability": "view"
        },
        {
            "type": "event",
            "name": "Deployed",
            "inputs": [
                {
                    "name": "owner",
                    "type": "address",
                    "indexed": true,
                    "internalType": "address"
                },
                {
                    "name": "contractAddress",
                    "type": "address",
                    "indexed": true,
                    "internalType": "address"
                },
                {
                    "name": "index",
                    "type": "uint256",
                    "indexed": false,
                    "internalType": "uint256"
                }
            ],
            "anonymous": false
        }
    ],
    "bytecode": {
        "object": "0x6080604052348015600e575f5ffd5b506106b78061001c5f395ff3fe608060405234801561000f575f5ffd5b506004361061003f575f3560e01c80631cea013a146100435780634c96a38914610073578063ba528b711461008f575b5f5ffd5b61005d600480360381019061005891906103e6565b6100bf565b60405161006a91906104c8565b60405180910390f35b61008d600480360381019061008891906103e6565b610186565b005b6100a960048036038101906100a4919061051b565b610341565b6040516100b69190610568565b60405180910390f35b60605f5f8373ffffffffffffffffffffffffffffffffffffffff1673ffffffffffffffffffffffffffffffffffffffff1681526020019081526020015f2080548060200260200160405190810160405280929190818152602001828054801561017a57602002820191905f5260205f20905b815f9054906101000a900473ffffffffffffffffffffffffffffffffffffffff1673ffffffffffffffffffffffffffffffffffffffff1681526020019060010190808311610131575b50505050509050919050565b5f73ffffffffffffffffffffffffffffffffffffffff168173ffffffffffffffffffffffffffffffffffffffff16036101f4576040517f08c379a00000000000000000000000000000000000000000000000000000000081526004016101eb906105db565b60405180910390fd5b5f5f3373ffffffffffffffffffffffffffffffffffffffff1673ffffffffffffffffffffffffffffffffffffffff1681526020019081526020015f2081908060018154018082558091505060019003905f5260205f20015f9091909190916101000a81548173ffffffffffffffffffffffffffffffffffffffff021916908373ffffffffffffffffffffffffffffffffffffffff1602179055508073ffffffffffffffffffffffffffffffffffffffff163373ffffffffffffffffffffffffffffffffffffffff167f78c9d1e385f0bb7d4dd0237eb7ab708b0780c73031080977cd5469bab04ed69060015f5f3373ffffffffffffffffffffffffffffffffffffffff1673ffffffffffffffffffffffffffffffffffffffff1681526020019081526020015f20805490506103299190610626565b6040516103369190610668565b60405180910390a350565b5f602052815f5260405f208181548110610359575f80fd5b905f5260205f20015f915091509054906101000a900473ffffffffffffffffffffffffffffffffffffffff1681565b5f5ffd5b5f73ffffffffffffffffffffffffffffffffffffffff82169050919050565b5f6103b58261038c565b9050919050565b6103c5816103ab565b81146103cf575f5ffd5b50565b5f813590506103e0816103bc565b92915050565b5f602082840312156103fb576103fa610388565b5b5f610408848285016103d2565b91505092915050565b5f81519050919050565b5f82825260208201905092915050565b5f819050602082019050919050565b610443816103ab565b82525050565b5f610454838361043a565b60208301905092915050565b5f602082019050919050565b5f61047682610411565b610480818561041b565b935061048b8361042b565b805f5b838110156104bb5781516104a28882610449565b97506104ad83610460565b92505060018101905061048e565b5085935050505092915050565b5f6020820190508181035f8301526104e0818461046c565b905092915050565b5f819050919050565b6104fa816104e8565b8114610504575f5ffd5b50565b5f81359050610515816104f1565b92915050565b5f5f6040838503121561053157610530610388565b5b5f61053e858286016103d2565b925050602061054f85828601610507565b9150509250929050565b610562816103ab565b82525050565b5f60208201905061057b5f830184610559565b92915050565b5f82825260208201905092915050565b7f496e76616c696420636f6e7472616374206164647265737300000000000000005f82015250565b5f6105c5601883610581565b91506105d082610591565b602082019050919050565b5f6020820190508181035f8301526105f2816105b9565b9050919050565b7f4e487b71000000000000000000000000000000000000000000000000000000005f52601160045260245ffd5b5f610630826104e8565b915061063b836104e8565b9250828203905081811115610653576106526105f9565b5b92915050565b610662816104e8565b82525050565b5f60208201905061067b5f830184610659565b9291505056fea26469706673582212200ba23294b80704e0f84bec9ef70b7f099454e6889544246202d3cc70fa211e4964736f6c634300081c0033",
        "linkReferences": {}
    },
    "methodIdentifiers": {
        "deploy(address)": "4c96a389",
        "getContractsByOwner(address)": "1cea013a",
        "ownerContracts(address,uint256)": "ba528b71"
    },
    "id": 0
}